:1000000090270020855B0000815B0000815B000081
:1000100000000000000000000000000000000000E0
:10002000000000000000000000000000815B0000F4
:100030000000000000000000815B00007D830000E4
:10004000815B0000815B0000815B0000A136000045
:100050007D320000815B0000815B0000815B00005D
:10006000815B000029430000394300004943000040
:10007000594300006943000079430000515B0000D0
:10008000615B0000715B0000815B0000815B000030
:10009000815B0000815B0000815B00005531000046
:1000A000815B0000815B0000815B0000815B0000E0
:1000B00010B5064C2378002B07D1054B002B02D03E
:1000C000044800E000BF0123237010BD1C01002084
:1000D0000000000034E1000008B5084B002B03D0FD
:1000E0000748084900E000BF07480368002B00D11B
:1000F00008BD064B002BFBD09847F9E70000000035
:1001000034E100002001002034E100000000000084
:1001100010B50020084B9847084CFA218900A047E9
:10012000074B1860FA218900A047064B186005228A
:10013000054B1A6010BDC0469D520000099000009A
:10014000040000200000002010E000E030B5084B63
:100150001C68084A00258021490206E0002C04D0D2
:100160005460956013680B42FCD00138F6D230BD64
:100170000400002010E000E008B5034B1B68002BD2
:1001800000D0984708BDC0463801002038B5002887
:1001900006D0041C034D0120A847013C002CFAD1D5
:1001A00038BDC0464D010000F8B5074C20276761F7
:1001B000402666616420054DA847A7610A20A8472C
:1001C000A6610A20A847F8BD804400418D010000C7
:1001D00070B582B00023134A136001AC012565702D
:1001E000A37025702620211C0F4EB0472520211C0E
:1001F000B0472720211CB0470C4B1B681D4203D081
:100200000A4B1B689B0701D4094B9847094B984739
:100210000122094B1A70BFF35F8F62B6002002B053
:1002200070BDC046380100207D36000010E000E0BF
:1002300011010000A90100001000002010B584B0D9
:100240000E4B186001AC201C0D4B984724230193E2
:1002500000236360013323720133E3720420211C05
:10026000084B9847084804210022084B984704206F
:100270000021074B984704B010BDC046380100204C
:10028000693300007D330000790100001132000065
:100290003D32000008B5002804D004200021044BA2
:1002A000984703E004200021024B984708BDC04650
:1002B0003D3200005D32000030B591B02F4C052377
:1002C000237000236370A37001A901224A708B7010
:1002D0000A7005202A4B98472378D9090022002963
:1002E00004D15A09D20127498C4662441F210B4090
:1002F0001E39081C9840906102AA117000235360B7
:100300009360137453749174D174137523315354DF
:1003100009930A9380235B02D3601B4B93620123F2
:100320005B42D362194B1363194B5363194B9361AF
:1003300019481A491A4B984700281AD1164D2C68AB
:10034000201C184B98471F2318401E3B8340181C45
:10035000154B18602A68D369002BFCD12268023340
:1003600013432360114B98470120114B98470020FD
:1003700000E0FA2040B211B030BDC0468803002032
:100380007D36000000440041030004000300060025
:1003900003000700001BB7008C0300200008004288
:1003A00089430000FD42000000E100E0A9010000D7
:1003B0008D010000F0B55F4656464D464446F0B408
:1003C00085B0032869D10E684D680C89002202AB04
:1003D000DA71002E08D0002D5DD10123994600234B
:1003E000019302ABDD1D05E0002399460133019323
:1003F00002ABDE1D334834490122344B9847002CB0
:100400003CD0304B9B46012704229A460423984651
:1004100049464B425941894630785B461B68197EF4
:100420003942FCD0197E3942FCD09862197E1142C3
:10043000FCD0514689798C46197E1142FCD0598BEB
:100440000020114205D0598B4046014389B259839F
:100450001E206146012903D1996AC905C90D01E031
:10046000996AC9B20028E7D12970013CA4B24D4471
:10047000019B59424B41F618002CCDD1114B196804
:1004800002220B7E1342FCD00E480F4900220F4B74
:10049000984700200EE0FA200CE00D480D49862216
:1004A00052000D4B98470D480D4B98470D200D4BB2
:1004B0009847FF2040B205B03CBC90469946A24602
:1004C000AB46F0BD8C030020880300205D45000092
:1004D0002CBA000054BA000005A2000040BA000087
:1004E00025A3000039A2000038B50B4D2C68201C54
:1004F0000A4B98471F2318401E3B8340181C80233B
:10050000074AD0502A68D369002BFCD12368022205
:1005100093432360002038BD8C030020FD4200007F
:1005200000E100E0002A06D082180B780370013049
:1005300001319042F9D17047002A04D0821801702D
:1005400001309042FBD17047031C0278002A07D08B
:100550000020013080B201331A78002AF9D100E07E
:1005600000207047024A13780133DBB213707047E2
:10057000400100207047C04600B583B00120094B00
:100580009847094801A9094B9847002806D102213C
:10059000019B194301910448054B984740B203B0B1
:1005A00000BDC04695020000701000003119000027
:1005B0003D19000008B50F4B1B78002B11D10E4BD5
:1005C0001B78032B03D00C4B1B78042B09D10B4B4E
:1005D000984700280BD10A480A490B4B9847002836
:1005E00005D1044A13780133DBB21370002040B206
:1005F00008BDC0465801002048010020E513000056
:1006000074100000785600003D190000014B18706E
:100610007047C0464801002000B583B0174B1B78D7
:10062000002B04D0154A1378013BDBB21370134B37
:100630001B780020002B1ED1114B1B78032B03D0FD
:100640000F4B1B78042B16D1002301930D480E4944
:100650000E4B984700280ED1013001A90C4B98474A
:10066000002808D101998B0705D5022399430191F0
:100670000130064B984740B203B000BD580100203E
:100680004801002074100000214300003D190000C3
:1006900031190000F0B55F465646C0B489B08346B4
:1006A0008A460192009310AB80CB1E8812AB1D8846
:1006B0007F220A4007AB5A70187008225A80002F18
:1006C00005D05A889219AA1892B25A8006E007AB50
:1006D0005A8800998C46624492B25A80554B98478A
:1006E000041E00D08EE00023059302AAD380049359
:1006F000049B5A461A430492049A53461B0213431E
:10070000049307AB5B88049A1B0413430493049976
:1007100049484A4B9847041E00D085E000230493C3
:10072000049A02331343049304994548434B984772
:10073000041E00D078E00022059202ABDA80063376
:100740001B889BB23F4A93421CD83F4C3C4804A9AB
:10075000A047002816D1049B9B0708D43B4805A955
:10076000394B984700280DD0002305930AE002ABCF
:10077000DA88013292B2DA8006331B889BB2314AA2
:100780009342E3D9059B002B4DD0059B069307A907
:100790004B889BB24B80069808222D4B9847041E2D
:1007A00042D1069B08330693019B002B0BD0069881
:1007B000191C009A264B9847041E35D1069B009AB7
:1007C000944663440693002F0ED0069B009AAD1A00
:1007D000ED1806950698391C321C1D4B9847041ECF
:1007E00022D1069BF3180693059B9B000493049A61
:1007F00002231343049304991648104B9847041E90
:1008000012D10CE014481549CA225200144B9847E3
:100810001448154B98470D20144B984704E0144B8F
:100820009847041C00E0FD2460B209B00CBC92465D
:100830009B46F0BDB50500008C1000003D1900007E
:1008400078100000E70300003119000000041500D3
:10085000B51900006C1000002CBA0000E8BC0000C4
:1008600005A2000098BA000025A3000039A20000EC
:1008700019060000F0B54F464646C0B487B0A34BFA
:1008800098461F1CA24E36E13B78013BDBB23B7021
:10089000B047041E00D010E19E4803A99E4B984724
:1008A000041E00D0FDE0039BDB0700D4EDE0002038
:1008B0009A4B9847974803A9974B9847041E00D036
:1008C0000CE101230399994303919248944B984773
:1008D000041E00D002E18F4803A98F4B9847041EE5
:1008E0000FD090489049C022FF32904B98479048D3
:1008F000904B98470D20904B98470120874B984785
:10090000ECE000228D4B1A70039B9B041B0D994653
:1009100000D1ADE000230593894805A97E4B984797
:10092000041E0FD07F488049CE22FF327F4B98476C
:100930008448804B98470D207F4B98470120774B88
:100940009847C9E004AD0598291C04227E4B9847BE
:10095000041C6B889BB26B8000280FD071487249D1
:10096000D622FF32714B98477848724B98470D203A
:10097000714B98470120694B9847ADE004AB5B8809
:100980009BB299451DD004AB5B884A46D31A042B11
:1009900017DD64486449EF225200644CA04704A963
:1009A0004A8892B20B78DBB2497800916848494690
:1009B000A0470D20604B98470120584B9847FA24D8
:1009C0008AE004AB1B78012B0DD1624B1B68002B16
:1009D0003BD004AA5078C0B25188083989B2059A30
:1009E0000832984731E004AB1B78022B0DD15A4BEB
:1009F0001B68002B29D004AA5078C0B2518808394E
:100A000089B2059A083298471FE004AB1B78042B83
:100A10000DD1524B1B68002B17D004AA5078C0B2DE
:100A20005188083989B2059A083298470DE03D4847
:100A30003D49F822FF323D4B984749483D4B984786
:100A40000D203D4B9847FA2446E03C4B1B78002B89
:100A50003FD134483449FF225200344B9847414833
:100A6000344B98470D20344B98473F4B984730E024
:100A70002C482D493D4A2D4B98473D482D4B9847D2
:100A80000D202D4B9847FE2428E026482649394A58
:100A9000264CA04738480399A0470D20264B98477D
:100AA00017E020482049354A204B98473448214BCD
:100AB00098470D20204B984710E01A481A49314AB0
:100AC0001A4B984730481B4B98470D201A4B9847B4
:100AD00004E02E4B9847041C002C0CD011482C49E4
:100AE0008E229200114DA84761B22A48A8470D20D6
:100AF000114B9847CCE643461B78002B00D0C3E649
:100B0000002007B00CBC90469946F0BD4001002083
:100B1000B5050000701000003119000095020000BA
:100B20003D1900002CBA000064BA000005A20000C4
:100B3000B4BA000025A3000039A200005001002033
:100B400084100000D8BA000049190000FCBA000067
:100B500014BB00003C0100204C0100205401002087
:100B600054BB00006CBB00007905000006020000C9
:100B700090BB00000D020000A4BB000013020000A7
:100B8000C0BB000019020000E4BB00001906000011
:100B900088BA000004BC0000F0B5474680B482B0BB
:100BA000061C0F1C151C1C1C002803D0002901D09A
:100BB000002A13D1002C04D001222E4B1A702E4B88
:100BC00098472E482E492F4A2F4B98472F48304B95
:100BD00098470D202F4B9847F42045E02E48694652
:100BE0002E4B984700283FD1009B98462C4801A9DE
:100BF0002A4B9847002837D1301C391C2A1C294B16
:100C00009847002830D143469F043F0DBD420ED97E
:100C10001A481B499C2292001B4CA0472248291CC1
:100C20003A1CA0470D201B4B9847F4201CE0019B69
:100C30009E4203D37219FF18BA420CD90F481049CB
:100C40001A4A114B98471A48114B98470D20114BDF
:100C50009847F42008E0BA4201D0002C04D00122C9
:100C6000044B1A70044B984740B202B004BC904643
:100C7000F0BDC04650010020790500002CBA0000EC
:100C80006CBA00005D02000005A2000034BC000048
:100C900025A3000039A200007010000031190000E7
:100CA000841000004919000054BC000076020000C6
:100CB00098BC000038B5022808D002D8012809D015
:100CC00014E003280ED0042808D00FE00F4B196061
:100CD000002018E00E4B1960002014E00D4B196045
:100CE000002010E00C4B196000200CE0041C0B48A5
:100CF0000B490C4A0C4DA8470C48211CA8470D2055
:100D00000B4B9847F42040B238BDC0464C01002040
:100D10003C01002054010020440100202CBA0000B6
:100D200078BA0000A502000005A20000DCBC0000AB
:100D300039A2000008B50023094A1360094A13606C
:100D4000094A1370094A1370094A137009480A4B7B
:100D50009847032009490A4B9847002008BDC04620
:100D60003C0100204C0100205801002048010020D7
:100D700040010020650500003D02000075050000EF
:100D8000B50C000030B59FB0041C151C2C2811D1E7
:100D9000101C03A904220023864CA047002800D081
:100DA00005E1854B1B68002B00D100E12C3003A925
:100DB0009847FCE01B2811D1101C03A9082200232E
:100DC0007C4CA047002800D0F1E07B4B1B68002B37
:100DD00000D1ECE01B3003A99847E8E0062811D1C8
:100DE000101C03A930220123724CA047002800D018
:100DF000DDE0714B1B68002B00D1D8E0063003A961
:100E00009847D4E00E2800D1D1E0322811D1101C2F
:100E100003A910220023674CA047002800D0C6E099
:100E2000654B1B68002B00D1C1E0323003A9984705
:100E3000BDE02F2816D103A8002164225F4B9847FC
:100E4000281C03A9642200235A4CA047002800D084
:100E5000ADE0594B1B68002B00D1A8E02F3003A94F
:100E60009847A4E0342823D1101C03A904220023AE
:100E7000504CA047002800D099E05148514DA84758
:100E80000398FF24211C0140020A2240030C234046
:100E9000000E00904C48A8470D204C4B9847464BFD
:100EA0001B68002B00D182E03420002198477EE0AF
:100EB000112816D10022464B1A70281C03A90432AF
:100EC00000233C4CA047002871D103AB1A78414B5A
:100ED0001A70394B1B68002B69D0113003A9984751
:100EE00065E013280FD1101C03A92C220023314CDC
:100EF000A04700285BD1304B1B68002B57D0133024
:100F000003A9984753E004280FD1101C1CA9042200
:100F10000023284CA047002849D1274B1B68002BF1
:100F200045D004301CA9984741E079280FD1101C06
:100F30001CA9042200231F4CA047002837D11E4BB8
:100F40001B68002B33D079301CA998472FE0092863
:100F50000FD1101C03A964220123164CA0470028BE
:100F600025D1154B1B68002B21D0093003A99847C8
:100F70001DE02A280FD1101C03A9042201230D4CC7
:100F8000A047002813D10C4B1B68002B0FD02A3030
:100F900003A998470BE0104810491822FF32094D69
:100FA000A8470F48211CA8470D20084B98471FB0A1
:100FB00030BDC046990B00005C01002039050000DF
:100FC00014BD000005A2000020BD000039A20000F1
:100FD00060010020610100202CBA0000F4BC000078
:100FE00040BD000010B5002818D002680D4B1A60F3
:100FF00000220D4B1A7000200C4B9847041E0ED196
:1010000000200B4B9847041E04D1012009490A4BCC
:10101000984704E00020094B984700E0F42460B2B0
:1010200010BDC0465C01002060010020B51A000020
:10103000350D0000850D0000B50C0000111C0000EE
:1010400008B5014B984708BD7508000010B584B07D
:101050000023009301930293012029210022024CD6
:10106000A04704B010BDC04695060000F0B54F463D
:101070004646C0B4A3B005900C1C151C1F1C2AAB1F
:101080001B8899462BAB1B789846012A0FD0002F5E
:101090000DD165486549E422FF32654B98476548A4
:1010A000654B98470D20654B9847F420B5E0631ECB
:1010B0001F2B0DD95C485D49F52252005C4B9847C7
:1010C0005F485D4B98470D205C4B9847F420A4E0A7
:1010D0004B460D2B0FD9FF2B0DD053485349F4220B
:1010E000FF32534B98475748534B98470D20534B6B
:1010F0009847F42091E007AE5A2002AB9C4660442A
:101100000599221C504B9847341940340023A37191
:1011100044334A46F25243465A1E93416722B3541F
:101120004123F554032D39D13B78013BDBB207AAAB
:101130001370032B0DD93C483C49444A3C4CA04712
:1011400007AB19784248A0470D203C4B9847F42044
:1011500063E07A78511E07AB59701023111C994334
:101160000B290DD0304831493A4A314CA04707ABE2
:1011700059783948A0470D20304B9847F4204CE06F
:10118000B91C162002AB9C4660442F4B98477B78D5
:1011900007AA9446634400229A7034E0022D1AD1C3
:1011A000381C2E4B9847431E9BB23F2B0DD91E482F
:1011B0001E49882292001E4B984729481E4B98478B
:1011C0000D201E4B9847F42027E0421C07A8391C2D
:1011D0001D4B984717E0042D05D107A8391C3E2266
:1011E000194B98470FE0012D0DD00F480F498C2265
:1011F00092000F4B98471B480F4B98470D200F4B01
:101200009847F42009E00023009301930293012002
:10121000282107AA6C33144CA04740B223B00CBC61
:1012200090469946F0BDC0462CBA000000BD0000B3
:1012300005A20000ECBD000025A3000039A20000BB
:1012400000BE000014BE0000250500000A020000D8
:1012500020BE0000110200003CBE00004905000055
:1012600058BE000074BE00009506000010B582B0A4
:1012700004AC2488009400240194024CA04702B0DE
:1012800010BDC0466D10000010B586B0011C04A84A
:101290000622074B984700230093019302930120F5
:1012A000022104AA0833034CA04706B010BDC04673
:1012B00025050000950600000020704738B5051C84
:1012C0000C1C074B9847002807D1281C211C054BF4
:1012D0009847002801D1044B984740B238BDC0461A
:1012E000B5050000551800001906000010B5041CD3
:1012F000064B9847002806D1201C054B984700282C
:1013000001D1044B984740B210BDC046B50500005E
:10131000C51800001906000070B586B0041C05AAA7
:1013200010705170002300930193029301202D212E
:101330000433094DA847061C0848094DA847094829
:10134000211CA8470D20084B9847201C074B9847A5
:10135000301C06B070BDC0469506000014BD0000EC
:1013600005A200004CBF000039A200000D060000DD
:1013700010B590B0031C2F2900D930210131CAB219
:1013800004A8191C064B984700230093019302936D
:101390000120072104AA3033024CA04710B010BD31
:1013A0002505000095060000F0B583B0041CA525B6
:1013B0006D010A4E0A4F281C211CB047002C09D091
:1013C00000230193281C01A9B8470028F3D1019BF1
:1013D0009C42F0D1002003B0F0BDC0463D19000092
:1013E00031190000F0B55F4656464546E0B484B07A
:1013F00001203C4B9847012003A93B4B98470190A3
:10140000002400280BD0394839497122394B9847BC
:1014100039483A4B98470D20394B984759E0394B9A
:101420009B46304B9A46384B98460221039B194302
:101430000120D8470120D0474346186802A92A4B0B
:101440009847002806D1029B002B03D02F4D254F33
:101450002D4E2CE02C4D0E232B600120214B984764
:10146000286802A9204B9847051EEFD01F48204945
:101470008B22204B98472648204B98470D20204B25
:101480009847019525E00220B847306802A9164B1D
:101490009847029B5B070AD4144815499E22154BB6
:1014A00098471C48154B98470D20154B9847029BB1
:1014B0005B070ED40134201C0321A8470029E2D089
:1014C0000221039B194301200E4B9847029B5B07A7
:1014D000ABD56B460420185604B01CBC90469A4607
:1014E000A346F0BD8D010000311900002CBA0000A8
:1014F00070BF000005A2000080BF000025A300000F
:1015000039A200003D1900000C00002015910000D8
:10151000A0BF0000C0BF000000B583B0164801A9FD
:10152000164B984700281CD180214900019B194384
:1015300001911148124B9847002814D1D020400146
:1015400001A90E4B984700280FD180214902019B29
:1015500019430191D0204001094B9847002806D13A
:1015600006E0FA2004E0FA2002E0FA2000E0FA2087
:1015700040B203B000BDC04608140000311900009D
:101580003D19000010B582B0204B1C68002C37D1EB
:1015900080204001191C1E4B9847002803D00022D0
:1015A0001A4B1A602EE01B4801A9194B98470028D6
:1015B00003D00022154B1A6024E0144B1B68164A16
:1015C000934206D1019B012B12D0144A0F4B1A6093
:1015D0000EE0134A93420BD1019B032B08D0042B3E
:1015E00003D1104A094B1A6002E00F4A074B1A60F8
:1015F000064A0E4B11680B40A021C9020B43136031
:10160000024B1C68201C02B010BDC04664010020C3
:1016100031190000F4130000A0021000A102100014
:10162000B0021000B1021000B2021000FFFFF0FF84
:10163000F0B5474680B48046234D244C244E281CE8
:10164000A047002802DB0120B047F8E721481F4BE4
:101650009847C30727D508E00120B8471E48B04780
:10166000013C002C1DD0A842F6D14346022B03D1E9
:101670001A481B491B4B98471B4B98470005000D08
:10168000E8239B00984203D10220184B984702E0C0
:101690000020164B984710481549124B98470020D8
:1016A0000DE0FB200BE00120094B98470A48074B4F
:1016B0009847FA24E4000F4D054F044ED3E740B29B
:1016C00004BC9046F0BDC04614100000251900006F
:1016D0008D010000BC0702000C000C00AC070200EA
:1016E0007DD51C3C3D19000085150000A9130000A4
:1016F000612F52EF9ED0AD1070B582B0144B0193A4
:10170000144B009302280CD1134B0193134B0093FD
:1017100007E00220B0470198A847013C002C04D103
:1017200011E00F4C00200F4E0F4D009B8342F0D173
:10173000009A0020074B9A4206D1054800210B4B26
:101740009847002000E0FB2040B202B070BDC046C8
:101750008C10000036265302AC070200C3C15DD7CF
:10176000D10700008D010000251900003D1900007F
:10177000F0B583B000230193A020400101A9284BBC
:10178000984700280AD027482749284A284B9847D5
:101790002848294B98470D20284B98472849019BFA
:1017A00019400191A0204001264B9847041C0A26AD
:1017B00000280CD01B481C49234A1D4B984723483E
:1017C0001D4B98470D201D4B9847201C24E0144FBB
:1017D0001C4DA020400101A9B847041E0DD011489E
:1017E000114987229200124B98471948124B98478B
:1017F0000D20124B9847201C0EE001994B050AD58D
:101800000F4B19400191A0204001A847013EF6B2BC
:10181000002EDED100E0002040B203B0F0BDC04693
:10182000311900002CBA000094C000000F02000023
:1018300005A200000CC0000025A3000039A2000092
:10184000FFFBFFFF3D1900001502000024C000004F
:101850003CC0000070B584B0061C0D1C144803A9E0
:10186000144B9847041E1BD10398030C05D1301C60
:1018700000210622104B984712E0000C0390C02371
:101880009B02184301A906220C4B9847301C01A962
:1018900006220B4B9847002D06D001232B7003E046
:1018A000002D01D000232B70201C04B070BDC04659
:1018B0009C1400003119000039050000491900008E
:1018C0002505000030B585B0051C0C4803A90C4B5C
:1018D0009847041E0FD1039B1804000C0390C023EB
:1018E0009B02184301A90622064B9847281C01A910
:1018F0000622054B9847201C05B030BD9C14000003
:1019000031190000491900002505000008B5014BF8
:10191000984708BDB902000008B5014B984708BDBB
:10192000E904000008B5014B984708BD11220000EA
:1019300008B5014B984708BD2522000008B5014BAA
:10194000984708BD3D220000F0B54F464646C0B45A
:1019500083B0061C8946151C144B1B88083B9BB2A0
:1019600001931C1C9A4207D80027391C4944AAB28B
:10197000301C0F4B984712E0019BD51A00270C4BE7
:1019800098464B46D919301C019AC047002806D109
:101990003F1936192B1BAC42E7D21D1CF1E740B2B0
:1019A00003B00CBC90469946F0BDC046080000202C
:1019B00079230000F0B54F464646C0B483B0061CFC
:1019C0008946151C144B1B88083B9BB201931C1CB9
:1019D0009A4207D80027391C4944AAB2301C0F4B41
:1019E000984712E0019BD51A00270C4B98464B46AE
:1019F000D919301C019AC047002806D13F19361961
:101A00002B1BAC42E7D21D1CF1E740B203B00CBC6B
:101A100090469946F0BDC0460800002051240000C1
:101A2000F0B583B0041C002301931D4801A91D4B90
:101A30009847051C019A110C8BB2180AE0701B091B
:101A40000F26334023713140617193B2190A21701E
:101A50001B09334063703240A270134B9847E0611A
:101A600023781A02A3783340134360780001FF27DC
:101A700038400343E078000262791640064321793A
:101A800009013940321C0A4308498A4200D9F3252A
:101A9000074A934200D8F32568B203B0F0BDC046B0
:101AA000AC0702003119000085150000301300005A
:101AB0002F130000F0B589B0002806D00378023B50
:101AC0005A1E93410220C51A00E0012500203A4A1F
:101AD0009047041E0BD039483949A022394B98470A
:101AE00039483A4B98470D20394B984760E03948C0
:101AF000344CA047384B9847011C3848A0470D206C
:101B0000334B9847364B9847281C364B9847041E52
:101B10004CD1281C344B9847041E47D1022D47D086
:101B2000324B9847041E0BD024482549D822254B18
:101B300098472F48254B98470D20254B984735E06F
:101B400068462C4B9847041C224F381C1D4EB0474A
:101B50006B4619785A789B782748B0470D201C4D62
:101B6000A847381CB0476B46D9781A795B79234867
:101B7000B0470D20A847381CB04721481321032245
:101B80000023B0470D20A8476B461A881D4B9A4288
:101B90000ED00A480A49E6220A4B98471A480B4BCE
:101BA00098470D200A4B9847F32401E0174B9847BC
:101BB00060B209B0F0BDC0460D1900002CBA00009B
:101BC000A0C0000005A20000BCC0000025A30000CA
:101BD00039A2000014BD000085150000D8C0000027
:101BE0005522000031160000F916000019150000FA
:101BF000E8C00000211A000008C1000024C1000054
:101C000040C10000130300005CC10000191900006E
:101C100010B5124B9847041E0BD011481149FC22F5
:101C2000114B98471148124B98470D20114B98477C
:101C300012E0114B9847041E0CD009480949812233
:101C40005200094B98470D48094B98470D20094B06
:101C5000984701E00A4B984760B210BD7117000029
:101C60002CBA0000ACC0000005A2000078C1000042
:101C700025A3000039A200001919000098C1000036
:101C80000122000000B585B001AB00220192029054
:101C900019810320191C024B984705B000BDC046AE
:101CA000B5030000F0B583B0061ECF2E04D0031C90
:101CB0003B33DBB2012B07D86B46D81D0121244BE7
:101CC00098470023002840D10B246B46DD1D204F90
:101CD000281C0121B84700280DD01E481E4940226B
:101CE000FF321E4B98471E481E4B98470D201E4B37
:101CF0009847002329E02B78B34205D0013CE4B299
:101D0000002CE5D10B3400E00B246B46DD1D104E9A
:101D1000281C0121B04700280DD00E480E494E2244
:101D2000FF320E4B98470E480E4B98470D200E4B36
:101D30009847002309E02B78002B05D0013CE4B242
:101D4000002CE5D1012300E0012358B203B0F0BD1F
:101D5000851C00002CBA000018C2000005A200007B
:101D600040C2000025A3000039A20000F0B55F4684
:101D700056464D464446F0B485B082468946934661
:101D800000239846414F80239B01994504D84B4638
:101D90006A46D380D68801E08026B6010A2402ABC9
:101DA000DD1C281C0121B84700280DD038483949CE
:101DB0007022FF32384B98473848394B98470D20EE
:101DC000384B9847002058E02B781B090F2B05D083
:101DD000013CA4B223B20133E3D102E024B2002CCF
:101DE0000EDC2B482B497C22FF322B4CA04702AB48
:101DF000D9782D48A0470D202A4B984700203CE079
:101E0000B6B2434618B25044311C204B98470028C4
:101E10000DD01F481F49C22252001F4B984723482C
:101E20001F4B98470D201F4B9847002025E05B462D
:101E3000002B17D11E4B1B78002B13D103A80221B6
:101E4000124B984700280DD0114812499022FF32BA
:101E5000114B98471748124B98470D20114B984744
:101E600000200AE04346F3189BB298464B469E1B5F
:101E7000B3B29946002B86D1012040B205B03CBCDC
:101E800090469946A246AB46F0BDC046851C000070
:101E90002CBA000000C8000005A2000074C20000B7
:101EA00025A3000039A20000A8C20000D8C200008B
:101EB0006801002008C3000000B585B001AB0190A7
:101EC0000022029219810320191C024B984705B089
:101ED00000BDC046B503000070B584B008AC2578DD
:101EE00001AC20703F30C4B20E2C00D992E0A000AB
:101EF000504C2058874601AB0A0C5A700A0A9A7057
:101F0000D97005218EE00B0ADBB2002D02D101AAA7
:101F1000537004E080225242134301AA537001AB74
:101F200099700022DA7005217CE001AB00225A7022
:101F30009A70DA70052175E001AB00225A709A7030
:101F4000DA7005216EE001ABFF225A709A70DA70E8
:101F5000052167E001AA080C5070080A9070D17042
:101F6000190A1171537107215CE001AA080C507025
:101F7000080A9070D170190C1171190A517193717E
:101F800008214FE00B0ADBB2002D02D101A84370FB
:101F900004E080204042034301A8437001AB9970E4
:101FA000110ED970110C1971110A59719A71082109
:101FB00038E001AB080C5870080A9870D970110EFF
:101FC0001971110C5971110A9971DA71092129E0FD
:101FD00010785B004340E35C0132AA42F8D15B0019
:101FE00001AA935501E00139C9B289B201A8124B87
:101FF0009847012300281AD0104811499022520016
:10200000104B98471048114B98470D20104B98479C
:1020100000230CE000230AE04E1E01AA95197F233D
:102020000C4CD5E70C4B1B78002BF5D0DBE758B2F6
:1020300004B070BDB4C10000B91E00002CBA00008D
:1020400000C2000005A200003CC3000025A3000060
:1020500039A2000000C700006801002070B582B0FE
:10206000041C0A1C302802D90023C92501E00123E1
:10207000C3250093281C211C0423164EB0470128B9
:102080000CD015481549164A164DA8471648211C6C
:10209000A8470D20154B9847002318E0281C144B27
:1020A00098470123012812D00B480C49114A0D4DC5
:1020B000A8471148211CA8470D200C4B9847002326
:1020C0000093CF2000210022024CA047002358B2E9
:1020D00002B070BDD91E00002CBA0000F0C1000093
:1020E0000302000005A2000068C3000039A200003E
:1020F000A51C00000902000094C30000F0B587B0E1
:10210000041E0391FF2C02D90026CA2501E00126F6
:10211000C4250096281C211C002204232A4FB847FE
:1021200001280CD029482A492A4A2B4DA8472B4878
:10213000211CA8470D202A4B9847002041E0281C6D
:10214000284B9847012813D020482149264A224D80
:10215000A8472648211CA8470D20214B984700235B
:102160000093CF2000210022174CA047002028E038
:1021700005A80421321C1E4B9847012813D0134890
:1021800013491C4A144B98471B481C4B98470D2079
:10219000134B984700230093CF20002100220A4CC4
:1021A000A04700200DE005AA5378190293781B047C
:1021B0000B4311780B43D27812061343039A136032
:1021C000012040B207B0F0BDD91E00002CBA0000BB
:1021D00024C200005D02000005A20000CCC3000084
:1021E00039A20000A51C000063020000F8C3000033
:1021F0006D1D00006B0200002CC4000025A3000030
:102200000022024B1A7000207047C046680100206F
:1022100000B583B001A9024B9847019803B000BDF7
:10222000FD20000008B5044B98470023012800D08A
:10223000FA3358B208BDC046FD20000008B5044B73
:1022400098470023012800D0FA3358B208BDC04691
:102250005D20000010B582B000230093354A137052
:1022600035486946354B9847002820D10122314B2B
:102270001A7033483349344A344B98473448354B05
:1022800098470D20344B98472B4869462B4B98476D
:10229000041E0CD12A482B49B82292002B4B984798
:1022A0002E482C4B98470D202B4B98473FE0214B55
:1022B0001B78002B19D17C33009999432C3B19438F
:1022C00000911D48264B9847041E0BD11C481D4900
:1022D000244A1E4B984724481E4B98470D201E4BFE
:1022E000984724E00122134B1A708020400101A975
:1022F000124B984700280DD111481249BD22920077
:10230000124B98471948134B98470D20124B98478A
:10231000FA240CE0084C201C154B98477023011C34
:102320009943203B1943201C124B9847002460B26C
:1023300002B010BD6801002024E80000FD2000006C
:102340002CBA0000E4C60000DD02000005A2000077
:102350004CC4000025A3000039A200009CC400006A
:102360005D200000EA020000C8C40000FCC40000B8
:10237000112200003D220000F0B583B0041C0E1CA9
:10238000151C00230093C820211C00222B1C244F65
:10239000B84701280CD023482349A3229200234D9B
:1023A000A8472348211CA8470D20224B984732E01C
:1023B000C820214B9847012812D01A481A491F4AB1
:1023C0001A4DA8471E48211CA8470D20194B9847B5
:1023D00000230093CF2000210022114CA0471AE0D7
:1023E000301C291C0022174B98470023012813D0CA
:1023F0000C480D49A72292000C4B98471248134BEA
:1024000098470D200B4B984700230093CF200021C5
:102410000022034CA047FA2358B203B0F0BDC046D7
:10242000D91E00002CBA000034C2000005A2000032
:1024300020C5000039A20000A51C00009202000087
:1024400050C500006D1D000088C5000025A30000D8
:10245000F0B54F464646C0B487B0041C8946151CEB
:1024600000230093C720211C00222B1C554EB0478F
:1024700001280BD054485549554A564DA84756484F
:10248000211CA8470D20554B984794E0C720544B7A
:102490009847012812D04C484C49524A4D4DA84704
:1024A0005148211CA8470D204C4B9847002300930E
:1024B000CF2000210022434CA0477CE0002205AB46
:1024C0001A80002780239B0198466A46D381474E95
:1024D0002C1C454501D96B46DC89A4B2002F04D1E0
:1024E0000323454506D9023B04E000234246AA42A5
:1024F0005B4102330B2002AA9446604410225242F0
:10250000134303700121B04700280CD02E483849EE
:10251000E02252002F4B98473648374B98470D2002
:102520002E4B984731E038B24844211C2F4B984736
:1025300000280CD024482E49CA22FF32254B984748
:102540002E482D4B98470D20244B98471DE02C4BCF
:102550001B78002B12D105A80221244B9847002894
:102560000CD019482249D422FF321A4B98472548EB
:10257000214B98470D20194B984706E0E719BFB249
:102580002D1BADB2002DA3D113E00F480F491E4AF9
:10259000104B98471D48184B98470D200F4B9847F4
:1025A00000230093CF2000210022064CA0470020EA
:1025B00002E0002000E0FA2040B207B00CBC9046D8
:1025C0009946F0BDD91E00002CBA000008C20000D8
:1025D0002702000005A20000B0C5000039A20000DB
:1025E000A51C00002D020000E0C50000B91E00007F
:1025F000F0C6000018C6000025A3000050C6000069
:102600006801002084C600003E020000BCC6000035
:10261000F0B55F4656464D464446F0B483B00E1CB6
:10262000009299460CAB1C88002C61D043001B180B
:102630009B0033495B58002B5AD043001B189B006A
:10264000CB189B889BB2002B52D043001B189B00D9
:10265000CB189B79012B4BD1F48043001A189300BF
:1026600098460B1C43449A468B46019053469B88E0
:10267000E31A1BB2002B05DD214B43449D88ADB20C
:10268000002301E0251C01235A464146895848464B
:102690002A1C1C4FB847002821D1194B4246D35859
:1026A0003360B580F3885B1BF380174B1B68002BEE
:1026B00005D0154B1B6801980099321C9847134BA5
:1026C0001B68002B05D0114B1B6801980099321C28
:1026D0009847641BA4B2A944002CC7D108E00C4859
:1026E0000C4DA8470C48211CA8470D200B4B9847C0
:1026F00003B03CBC90469946A246AB46F0BDC046EE
:10270000D4030020990B000058040020CC030020C3
:1027100014BD000005A2000010C8000039A200008E
:10272000F0B55F4656464D464446F0B49BB00D1C8E
:10273000141C412826D1101C09A904220023C74CCF
:10274000A047002800D0B0E109AB5A7805AB1A7059
:10275000C34B1B68002B07D0C14B1B6809AA002084
:102760001056012105AA9847BE4B1B68002B00D1CB
:102770009BE1BC4B1B6809AA00201056012105AA49
:10278000984792E1422826D1101C09A9042200236F
:10279000B24CA047002800D087E109AB5A7805ABBE
:1027A0001A70AF4B1B68002B07D0AD4B1B6809AAF2
:1027B00000201056022105AA9847AA4B1B68002B3F
:1027C00000D172E1A74B1B6809AA00201056012115
:1027D00005AA984769E143284FD1101C05A90C228E
:1027E00000239E4CA047002800D05EE105AB597A3B
:1027F0004BB2002B1EDB5A00D21892009A48821866
:102800000020D0710130907198480288013292B254
:102810000280028892B2002A03D10288013292B269
:102820000280924A128892B25800C3189B008E48C8
:10283000C3185A8109AB197002229A8005AA5188DF
:10284000D980069A0B92864B1B68002B07D0844BCD
:102850001B6805AA08201056042109AA9847814B35
:102860001B68002B00D120E17E4B1B6805AA0820C5
:102870001056042109AA984717E1442801D04B2893
:1028800026D1201C09A904220023744CA04700284B
:1028900000D00AE109AA107805AB187052785A7076
:1028A0006F4B1B68002B05D06D4B1B6840B2052198
:1028B00005AA98476B4B1B68002B00D1F5E0694BCC
:1028C0001B6809AA00201056052105AA9847ECE0CC
:1028D0004A281CD1101C09A9442200235F4CA047A0
:1028E000002800D0E1E01999614B1B68002B03D050
:1028F0005F4B1B6809A898475E4B1B68002B00D1F3
:10290000D3E05C4B1B68199909A89847CDE046288D
:1029100006D0482807D04D2866D10623984604E003
:102920000623984601E009239846201C05A9102299
:1029300000234A4EB047002800D0B6E005A90B7B23
:102940000393CA8992465AB2474F5600B3189B0068
:10295000FB1818720B8999464B899C4609AB48882D
:10296000588106990C91B2189200BA180832528810
:1029700092B252452FD14B461AB2002A0DDDAA421F
:102980000BDA6B460C20185664444B46009309A999
:102990004246231C384CA04787E009AA4B46938047
:1029A000002309932E4B1B68002B07D02C4B1B6870
:1029B0006A460C201056414609AA9847294B1B68C5
:1029C000002B72D0274B1B686A460C2010564146DC
:1029D00009AA984769E0102D67D90020002100223C
:1029E00001231E4CA04760E0452805D0472805D0AC
:1029F00007254C2803D041E0072500E00825201CCE
:102A000009A908220023154CA04700284DD109AB85
:102A10001C789A88598805AB198063B25900CB1885
:102A20009B001149CB1808335B889BB293423CD181
:102A30000B4B1B68002B05D0094B1B6860B2291C8F
:102A400005AA9847074B1B68002B2ED0054B1B6827
:102A500060B2291C05AA984727E0C046990B0000E0
:102A600058040020CC030020D40300206A01002079
:102A700060040020C803002011260000522814D151
:102A8000101C09A9142201230B4CA04700280CD1CB
:102A90000A4B0A9A1A601B68002B06D0074B1C6869
:102AA00009AB0B991A7C0998A0471BB03CBC904617
:102AB0009946A246AB46F0BD990B00005C0400208D
:102AC00008B50A4B1B78002B0ED10948002184223F
:102AD000084B984702200849084B98470122034BAE
:102AE0001A700022064B1A8008BDC04669010020FA
:102AF000D40300203905000021270000B50C000098
:102B00006A010020024B1860024B19607047C046F2
:102B10005804002060040020024B1860024B19602A
:102B20007047C046CC030020C803002030B587B0F2
:102B3000FF24022853D1012945D0F43C0530022955
:102B400043D0F4344BE0011C43001B189B00EB18EE
:102B50009B79002B31D14B005B189B00214CE31873
:102B600001249C71204C238801339BB2238023884D
:102B70009BB2002B03D1238801339BB223801A4BD5
:102B80001C88A4B24B005B189B00164DEB185C81AF
:102B9000C4B2D30723D505AA14704B005918890075
:102BA0006B180121D9710023009301930293022035
:102BB0004F3104330D4DA84711E00130C0B2A0429F
:102BC000C1D3FF240BE007240020011C43001B1885
:102BD0009B00044DEB189B79002BBCD0EDE760B255
:102BE00007B030BDD40300206A0100209506000024
:102BF00070B588B0041E36DB002936D043001B18A0
:102C00009B001E48C3189B79012B30D1002A30D07D
:102C100063001B199B00C318DB794426DB0707D52B
:102C200063001B199B00C318DA7905AB5A7207368B
:102C300005AD2C72281C0822114B984763001C1903
:102C4000A4000E4B1C1963896B8100230093019330
:102C500002930220311C2A1C0C330A4CA047002886
:102C600008D0F72006E0FA2004E0FA2002E0FA207B
:102C700000E0FA2040B208B070BDC046D403002086
:102C8000250500009506000030B589B00D1C002810
:102C900035DB002935D0AF23DB009A4233D843001F
:102CA0001B189B001B49CB189B79012B2DD104AC21
:102CB0002070628043001B189B00CB1808335B8890
:102CC000A3815024062800DD0C3C43001818800026
:102CD000104B1818C3794521DB0701D5073155245E
:102CE00080231943009501920294022004AA703BAC
:102CF000094CA0470023002808D0084B06E0084BE9
:102D000004E0074B02E0064B00E0054B18B209B0A7
:102D100030BDC046D403002095060000F2FF00003D
:102D2000FAFF000070B586B000283ADB00293AD0DF
:102D3000002A3AD044002418A4001F4D2C19A4796D
:102D4000012C34D12E1C44002518AD00A951711955
:102D50008A80097A002200292AD172190121117270
:102D6000D2794531D20700D50731002B02D1013B82
:102D7000049300E0049304AA107143001818800023
:102D80000D4B18184389D3800023009301930293BD
:102D900002200833094CA0470022002808D0084A26
:102DA00006E0084A04E0074A02E0064A00E0054A55
:102DB00010B206B070BDC046D403002095060000D6
:102DC000F2FF0000FAFF000030B587B0041E2DDBD3
:102DD00043001B189B00184AD3189B79012B27D15D
:102DE00005A9087043001B189B00D3185889488018
:102DF000002199715981DB794931DB0700D5053113
:102E00000023009301930293022005AA04330B4D83
:102E1000A847051E00D0F72560000419A400064845
:102E2000201800210C22064B984702E0FA2500E00A
:102E3000FA2568B207B030BDD40300209506000023
:102E400039050000F0B583B0002301930024431C32
:102E5000471D0026181C5D1E2A78BB4219D02E2A59
:102E60001BD0002A1CD0111C3039092913D8B100FD
:102E70007118490030398A18D6B20133EAE70134B3
:102E8000042CE4D101A869460422084B9847019814
:102E900009E0002007E0002005E06B46E654EEE77D
:102EA0006B46E654EBE703B0F0BDC04625050000D5
:102EB00010B584B0041C0C4B9847C3B2402B0FD8FC
:102EC000FF231840431C002200920192029202202C
:102ED000CA21221C054CA047002802D0F72000E0A0
:102EE000FA2040B204B010BD49050000950600006C
:102EF0000C4B1B68002B10D1EFF31083002B09D172
:102F000072B6BFF35F8F0022074B1A700132074B76
:102F10001A7002E00022054B1A70024A136801334E
:102F2000136070476C010020100000207001002029
:102F3000084B1A68013A1A601B68002B09D1064B2E
:102F40001B78002B05D00122044B1A70BFF35F8F52
:102F500062B670476C010020700100201000002054
:102F6000F0B583B001AC012565700027A77025700E
:102F70003E20211C064EB0478022D205054B9A61A7
:102F8000277065700F20211CB04703B0F0BDC0460C
:102F90007D3600008044004130B58FB001AA642323
:102FA0000193224B536000239360137313768021A7
:102FB0008903116101214942918225315354936261
:102FC000083153540131535401315354D7331386CC
:102FD000174BD382174BD361174B1362174C201C2E
:102FE0001749184B984724680722E3691A42FCD115
:102FF0002268022313432360104D2868124B984720
:103000001F2318401E3B8340181C104B1860E88893
:103010000023102105E00133834202D31023638390
:1030200002E0628B0A42F6D00FB030BD480D0000BE
:1030300010270000030008000300090064040020BA
:1030400000100042E9360000FD42000000E100E00F
:1030500070B588B007AD0143297000236B7004A9D7
:103060004F20088001244C804D600B724B728B7294
:1030700001AC20806280029523726372A372074EB6
:10308000301C074B9847301C211C064B984728786A
:1030900000026B78184308B070BDC046640400207D
:1030A000FD3B0000DD3B000010B5002000210222A6
:1030B000214B9847021C0123010402D54004420C15
:1030C000FE331E490978012911D0002904D00229B4
:1030D00018D0032922D02CE0D20992B258B2504322
:1030E000174B98470022174B174CA04723E0920933
:1030F00092B258B25043124B98470022134B124CD5
:10310000A04718E0520992B258B250430C4B98476E
:103110000022FF239B050C4CA0470CE0120992B241
:1031200058B25043064B98470022094B064CA04723
:1031300001E00020002110BD51300000710100208D
:10314000499F00000000E03FA99900000000D03F27
:103150000000B03F38B52D4B1C6823681D7EEDB2D2
:10316000EA0735D5E27ED20732D5A27ED2072FD527
:1031700001221A762268537E5BB2002BFBDB616969
:103180008B1C6361538B9BB20B80238B013B9BB2E7
:103190002383002B11D0637F002B19D02268537E2C
:1031A0005BB2002BFBDB117B02230B431373226802
:1031B000537E5BB2002BFBDB0AE0237F052B07D19C
:1031C00000232377013322689375201CA368984756
:1031D0006B070BD5042322681376E37E9B0705D586
:1031E000A37E9B0702D5201CE3689847AB070BD54D
:1031F000022322681376E37E5B0705D5A37E5B0777
:1032000002D52369201C984738BDC0468C04002095
:103210001723002A0DD18B00074A9B58002B03D19E
:1032200089008850002304E0834201D01D2300E080
:103230000023181C7047C04694040020172300295F
:1032400007D100221F2800D8034A01238340D360FE
:103250000023181C7047C04600180040172300299F
:1032600007D100221F2800D8034A0123834093601E
:103270000023181C7047C0460018004070B500229B
:10328000154B1A7000231F25144E134C1F2B19D9F0
:103290000FE0002100E012490A619B009B59002BBE
:1032A00000D0984723780133DBB223700F2BEDD980
:1032B00011E0291C194001228A40002109691142AC
:1032C000E7D1EFE7291C194001228A400449096926
:1032D0001142E0D1E6E770BD900400209404002084
:1032E00000180040044A117802230B4313705378EE
:1032F0005BB2002BFBDB70470018004000B583B0C9
:10330000124A916940230B43936101A900230B707A
:1033100005200F4B984705200E4B98470E4A117811
:1033200001230B43137053785BB2002BFBDB0B4B79
:10333000191C4031002204C38B42FCD11022084BDF
:103340001A60084B984703B000BDC0460004004017
:10335000B5530000295300000018004094040020D9
:1033600000E100E0E5320000002303604360012239
:103370000272427283720233C3727047F0B583B037
:10338000051C0C1C01A900234B70CB7023790B701A
:10339000237A8B702078154B984700261F2D00D874
:1033A000134E07222A409200E07AA37A002B01D024
:1033B00008231843EB089B00F318996990400F27E6
:1033C0009740B9430A1C02439A61637A002B06D0E6
:1033D00073690122AA40151C1D43756104E07369DD
:1033E0000122AA409343736103B0F0BDAD540000C5
:1033F0000018004010B51E4AD16904230B43D36165
:103400001C4B198B2022FF320A431A831A7D052395
:10341000D2072BD502781202C02189000A40141C61
:103420004178C901FF22131C0B40221C1A43C378A8
:103430009B041343827852001E210A4013430279F1
:103440001204C02189020A4013430A4A5360936858
:103450005B035B0F084908249C400C8093684B80F9
:1034600043780B71138BDB05DB0F1B01181C10BDA0
:1034700000040040004000417401002030B5041CED
:103480001F4A5088138843438B4206D2182080225B
:1034900092011C4BCB18934231D81B4B5D688022A4
:1034A000D2022A435A60188B2022FF3202431A8329
:1034B0001B7D0520DB0722D5452C1FD8A300134A0E
:1034C000D3589F46104B1B8B1020DB0517D489085F
:1034D00049000D4BD96103E0890849000A4BD961C5
:1034E000A52000020443084B1C80191C01220B7DFF
:1034F0001342FCD0044B5D60002000E0172030BD7B
:103500007401002000C07FFF004000416CC8000033
:10351000F8B5254B1D885B886B431824834240D344
:103520006B1E03423DD1013C95423AD31F4B1B7D9C
:10353000123CDB0735D51E4C1C4B1C801D1C012486
:103540002B7D2342FCD0194C258B2023FF332B43AA
:1035500023834608002A1FD076000023571ECD5C27
:10356000BB4201DBACB203E0CC18647824022C43EC
:10357000348002339BB202369A42F0D80A4B1B7950
:103580000024002B0DD13F2A0BD8011C042000225F
:10359000084B9847041C04E0034B1B790024002BC4
:1035A000F3D0201CF8BDC04674010020004000414B
:1035B00044A5FFFF7D34000070B5194B1D885B8862
:1035C0006B431824834228D36B1E034225D1013C50
:1035D000954222D3134B1B7D123CDB071DD5114CAA
:1035E000258B2023FF332B4323834008002A13D04D
:1035F00040000025561E2B181C88A4B22B041B0C5F
:10360000CC54B34202DACB18240A5C700235ABB258
:103610009A42F0D8002400E00024201C70BDC0466F
:103620007401002000400041114B1A885B8853430D
:103630001821834219D39200013A104215D10D4B43
:103640001B7D1339DB0710D50A4B198B2022FF3263
:103650000A431A8380084000D861074A1A80191C5F
:1036600001220B7D1342FCD00021081C7047C0468C
:10367000740100200040004102A5FFFF00B583B0A7
:1036800001AB80221A700A785A704A789A708A7848
:10369000DA70191C014B984703B000BDAD5400000F
:1036A00010B50D4B1A681468538A118A1940237A91
:1036B000E0790340D80906D08B0701D5D368984735
:1036C0008023237207E0DB0705D5CB0701D593687C
:1036D00098470123237210BDD404002001680722FB
:1036E000CB691A42FCD17047F0B54F464646C0B48C
:1036F00083B0071C0D1C161C3960081C6D4B9847C5
:103700006D490A6A841C0123A34013430B6201A97B
:10371000337B0B701430C4B2201C684B9847201CBC
:10372000674B9847307B0021664B98472B681C20DD
:103730009B0700D5B9E02B681738DB0700D5B4E04C
:1037400038685C4B98469847041C5F495F4B984724
:10375000A4005F4BE75000233B767B7600247B83FD
:10376000BB832522BC543B6214332B603D68281C6C
:10377000C047804680236A461370547001239370BB
:10378000D470F069346A002803D1281C0021514B01
:1037900098476B46187002236A465370000CC0B2FB
:1037A00069464D4B9847002C04D1281C0121494BF8
:1037B0009847041C6B461C7002236A465370240C05
:1037C000E0B26946444B9847B38AFB80F38A3B8159
:1037D000327E8023002A04D1404B9B789B07DB0F6D
:1037E000DB013269002A00D01343B268134324225C
:1037F000B25C002A02D08022D2051343B26A002AAA
:1038000000D013432C22B25C002A02D08022120581
:1038100013432D22B25C002A02D0802212041343EB
:103820002E22B25C002A02D08022D20313432A68DF
:1038300013432B6080235B006B6047461437FBB259
:103840009846181C264B9847041CFA2080003368C1
:10385000434399465F00308E60432249224B98478C
:103860000A304B465843201AC0190138391C1F4BE7
:103870009847041EFF2C0DD84046194B9847716895
:10388000FA23DB0059434B1E1818174B9847013891
:10389000FF2801D9402008E00004FF231B04184042
:1038A000FF231C400443EC60002003B00CBC904696
:1038B0009946F0BD8142000000040040B55300006D
:1038C00029530000AD400000E93C0000C142000067
:1038D000D8040020F9400000AD5400000020004151
:1038E000D153000000CA9A3B0990000029910000C2
:1038F00003681A7E920707D502221A765B8B9B0714
:103900004120DB1718400AE05A8B520706D55A6847
:10391000C02189020A435A60182000E00020704745
:1039200030B5026800230124022504E001339BB274
:103930000189994207D9117E214206D1117E29427F
:10394000F4D0002002E0122000E0002030BDC0468C
:1039500010B5046863688022D20213436360616219
:10396000024B98470123237610BDC0462139000041
:10397000F0B55F4656464D464446F0B483B0061C4B
:10398000894605684C882B681B01DB0F9A464B7AE9
:10399000002B02D0897A4F4B98476A684E4B1340F0
:1039A0006B604B461B7A002B26D04B465B7A9A0302
:1039B0004B461B885B0013438022120213436B6249
:1039C000301C464B98476A68434B13406B60031E9C
:1039D00078D1301C424B9847031E73D14B465B7A1B
:1039E0009B03012213434A461288120A78210A4394
:1039F000520013436B6209E04B461B885A004B464A
:103A00005B7A9B031343012213436B62301C334BDD
:103A100098476A68304B13406B60031E52D1301CCC
:103A20002F4B98470190031E4CD1013CA4B20023B8
:103A300098462C4B9B4629E06B8B9B0641D5F37A2D
:103A4000002B0FD05346002B02D1002C02D009E0EE
:103A5000012C07D16B688022D20213436B60013CBA
:103A6000A4B213E0301C204B984743465F1CBFB202
:103A70002823EB5C4A46526841465354301C174B8E
:103A80009847013CA4B2002803D1B8465C45D3D185
:103A900001E0B8460190B37A002B07D0301C124BDE
:103AA00098476B68C022920213436B60301C0E4B28
:103AB00098472823EA5C4B465B6841465A54019B71
:103AC00000E04123181C03B03CBC90469946A24636
:103AD000AB46F0BD51390000FFFFFBFF213900006C
:103AE000F1380000FFFF0000DD360000F0B55F4652
:103AF00056464D464446F0B483B0061C0F1C05687C
:103B00004C88314B98477B7A002B03D0B97A301C14
:103B10002E4B98476A682E4B13406B603B7A002B04
:103B200009D07B7A9A033B885B0013438022120200
:103B300013436B6205E07B7A9A033B885B00134377
:103B40006B62301C234B9847031E36D1301C224B2E
:103B50009847031E019030D1A04600242033994697
:103B6000194B9B461B4B9A4611E06B8B4A461342FE
:103B700022D0301CD8477B681A5D2823EA54301CB9
:103B8000D047002806D16B8B01345B0704D4444531
:103B9000EBD103E0019001E01E230193B37A019879
:103BA000002B0AD0301C084B98476B68C022920249
:103BB00013436B60019800E0412003B03CBC904689
:103BC0009946A246AB46F0BDDD36000051390000F3
:103BD000FFFFFBFF21390000F138000008B5838B9F
:103BE0009BB20522002B05D101338372C372024BB5
:103BF0009847021C101C08BD7139000008B5838B62
:103C00009BB20522002B05D183720133C372024B94
:103C10009847021C101C08BDED3A000001680722FD
:103C2000CB691A42FCD1704770B5041C0668326833
:103C3000438B858B5D1BADB2838B013B9BB2838332
:103C400013010CD5C37A002B15D0838B9BB2012BAB
:103C500011D173688022D202134373600BE0C37AE0
:103C6000002B08D0838B9BB2002B04D17368802279
:103C7000D20213437360A38B9BB2002B0AD1A37AA9
:103C8000002B07D0201C084B98477368C022920273
:103C900013437360201C044B9847236A5D19282343
:103CA000F35CDBB22B7070BD1D3C000070B5066884
:103CB000738B5B0703D51E222523C25410E0051C1D
:103CC000438B848B1C1BA4B2838B013B9BB28383ED
:103CD000044B98472B6A1C192378DBB22822B35473
:103CE00070BDC0461D3C000070B580006F4BC458CD
:103CF00025682B681B01DA0F637E267E1E40638BCE
:103D00009BB2002B35D1A38B9BB2002B31D02B7EE5
:103D1000DB0708D501232B766B8B9B0716D5412239
:103D20002523E25412E06B8B5B070FD51822252365
:103D3000E2540023A383A37A002B07D0201C5C4B02
:103D400098476B68C022920213436B60A38B9BB2AF
:103D500063832523E35C052B56D11F33E35C002BE3
:103D600003D1201C534B98474EE0201C524B9847E0
:103D70004AE0638B9BB2002B26D0A38B9BB2002B17
:103D800022D12533E35C052B1ED11F33E35C002BCE
:103D90001AD103332B750023638325330022E254A9
:103DA000A37A002B08D0201C414B98476B68C02297
:103DB000920213436B6001E001232B76F30723D5B6
:103DC000E368201C98471FE0638B9BB2002B1BD03D
:103DD000A38B9BB2002B17D06B8B9B0609D4002AB8
:103DE00003D0A38B9BB2012B03D041222523E254A5
:103DF0000AE02423E35C002B03D1201C2D4B9847C1
:103E000002E0201C2C4B9847638B9BB2002B2AD0DE
:103E1000A38B9BB2002B26D12533E35C052B22D14B
:103E20001F33E35C012B1ED12B7E9B0701D50223A0
:103E30002B7603232B750023638325330022E25462
:103E4000B30707D52423E35C012B03D12369201C8E
:103E5000984708E0F30706D52423E35C002B02D142
:103E6000E368201C98472523E35C052B1CD0252301
:103E7000E35C002B18D003232B7500236383A383FB
:103E80002533E35C412B0AD0A37A002B07D0201CFA
:103E9000074B98476B68E022D20213436B607307AD
:103EA00002D56369201C984770BDC046D804002025
:103EB0001D3C0000AD3C0000293C000010B5490845
:103EC000402481420CD30023091A01339BB288425B
:103ED000FAD9013B9BB24024FF2B01D81380002468
:103EE000201C10BDF0B55F4656464D464446F0B422
:103EF00089B01C1C12AB1B78061C5E4340258E4209
:103F000000D9C7E0251C07920C1C021C002D51D1C2
:103F1000181C00210023634DA8478346261C002758
:103F20000023002402930394002200233F20202139
:103F30008C461F390096019720246442041903D44B
:103F40000D1CA540A84604E06446241A0D1CE5405B
:103F5000A8460C1C8440A146141C1D1CA4185D41DD
:103F6000221C2B1C5E4647463E4203D00E1C2643B5
:103F7000321C2B1C019C9C4210D802D1009C944204
:103F80000CD8009C019D121BAB414D46029E039F25
:103F900035433C1C46463443029503940138CBD24A
:103FA0000022012302980399121A8B41110C1B0461
:103FB00019436CE00021012D69D1610F0F1CE10054
:103FC0008846181C00210023364CA047041C0D1CF9
:103FD00000239C4620339B46012663460593B94641
:103FE0006B461B7D069300239C46002000213F2248
:103FF0000094019520235B42D31803D4341C9C40C9
:10400000231C04E05B469B1A341CDC40231C371C39
:104010009740041C0D1C24184D41201C291C0290A3
:10402000039144463C40A2464C4623405446234319
:1040300005D0029B039C1D1C3543281C211C019BA1
:104040008B420AD802D1009B834206D8009B019C78
:10405000C01AA14163463B439C46013ACAD2009C28
:10406000019D62460599531ADB080F4A934208D90D
:10407000069A0132D2B206920A1C01320592082A2F
:10408000AED14025069A082A04D051031943079B54
:1040900019800025281C09B03CBC90469946A246D0
:1040A000AB46F0BD0D930000FF1F000010B582B0BD
:1040B000041C0E4B1B78002B01D000290DD001A948
:1040C0000C7013200A4B984713200A4B9847074B54
:1040D0005C7001221A70002006E0044B5B7883427A
:1040E00001D01D2000E0002002B010BD7C010020A6
:1040F000B553000029530000444B984233D006D8F2
:10410000434B98420DD0434B98421BD06FE0424B3B
:1041100098424AD0414B984258D0414B984266D180
:1041200032E0012906D0002963D0022906D00329F4
:1041300006D001E03B4867E0002065E03A4863E0D4
:104140003A4861E0012906D0002954D0022906D05E
:10415000032906D001E0364856E0002054E03548F7
:1041600052E0354850E0012906D0002945D0022907
:1041700006D0032906D001E0304845E0002043E0A6
:104180002F4841E02F483FE0012906D0002936D0D2
:10419000022906D0032906D001E02B4834E0002094
:1041A00032E02A4830E02A482EE0012906D00029D2
:1041B00027D0022906D0032906D001E0254823E0B4
:1041C000002021E024481FE024481DE0012906D0FA
:1041D000002918D0022906D0032906D001E0204882
:1041E00012E0002010E01F480EE01F480CE0002005
:1041F0000AE01E4808E0032006E01D4804E01D48D0
:1042000002E01D4800E01D487047C0460010004213
:1042100000080042000C004200180042001C00424E
:10422000001400420300050003000600030007001D
:104230000300010003001E0003001F00030009002B
:1042400003000A0003000B0003001100030012002A
:104250000300130003000D0003000E0003000F0015
:1042600003001700030018000300190003000400F6
:10427000030008000300100003000C0003001600F8
:1042800030B587B00C4B6A4632CB32C232CB32C229
:10429000009B834206D001239A006946525882420D
:1042A00003D100E00023D8B203E00133062BF3D1A1
:1042B000002007B030BDC04684C900007047C0462A
:1042C000F0B50A4B1B78002B0CD1094F094E0A4D53
:1042D0000024DE515A1914600433182BF9D101223D
:1042E000024B1A708000024BC150F0BD7E010020CD
:1042F00080010020BD420000D804002010B582B02B
:10430000041C684605490622054B9847201C054BAE
:1043100098476B46185602B010BDC0469CC90000B5
:104320007DA000008142000008B5024B1B68002000
:10433000984708BD8001002008B5024B5B6801204A
:10434000984708BD8001002008B5024B9B680220F9
:10435000984708BD8001002008B5024BDB680320A8
:10436000984708BD8001002008B5024B1B69042056
:10437000984708BD8001002008B5024B5B69052005
:10438000984708BD80010020F0B58BB001600C6833
:104390001C23A40700D5C4E00C68173BE40700D534
:1043A000BFE0161C0C1C051C081C5F4B98475F499E
:1043B0000A6A871C0123BB4013430B6209A9242707
:1043C000F35D0B701430C3B20193181C584B98471F
:1043D0000198584B9847F05D0021574B9847337828
:1043E000012B00D097E022680B331343236092E047
:1043F00004C38B42FCD10023EB62AB620024AB868A
:104400002B863633EC540133EC540133EC54353BFA
:104410006B722C712868444B9847071C4749484BDE
:104420009847BF00474BFD502F6804AB80221A709D
:104430005C707F3A9A70DC703378002B02D10022D6
:1044400004AB9A70B36A0593F36A0693336B0793D0
:10445000736B08930024E1B2A30005AA98580028C2
:1044600002D1381C384B9847431C06D002AB187257
:10447000000CC0B204A9354B98470134042CEAD192
:1044800033786B71337CAB71B37CEB71337D2B7202
:10449000002202ABDA803378012B13D12868224B3B
:1044A00098471430C0B22A4B9847011CB06902AB40
:1044B0009A1D284B98471723002832D102AB0633A8
:1044C0001B783B73B36872681343F2681343327C02
:1044D000717C002903D120498978890701D5802181
:1044E0000B43B17C002902D0802189020A43F17C70
:1044F000002902D0802189000A43317D002902D0A1
:10450000802189010A4339680B433B607B681A4369
:104510007A60002305E02B1C0C33291C2831002273
:1045200066E7181C0BB0F0BD81420000000400409B
:10453000B553000029530000AD4000005146000073
:10454000C1420000D8040020F9400000AD54000032
:10455000D1530000BD3E00000020004110B5447959
:104560001523012C70D1047A0023002C6CD1002A71
:104570005AD04B78002B46D003681B7EDB0710D443
:104580000B78D9090022002904D15A09D2012F49F8
:104590008C4662441F210B401E39994091610523CE
:1045A00052E00B78DC090022002C04D15A09D20118
:1045B000264CA44662441F2423401E3C9C40546168
:1045C0008A780368197EC90700D59A62C2790023E8
:1045D000002A39D102680421137E0B42FCD0117EDF
:1045E0000023490730D5538B5B0703D5518B042338
:1045F0000B4353838379012B02D1936A002323E079
:10460000936A002320E00B78D9090022002904D105
:104610005A09D2010D498C4662441F210B401E39B4
:104620009940516100230FE00B78D909002200293D
:1046300004D15A09D20105498C4662441F210B401E
:104640001E39994091610023181C10BD004400419F
:10465000F8B58000684BC45826683623E35C3722DF
:10466000A75C1F40337EB57D1D40EB073DD56379C8
:10467000012B3AD1637A002B0FD1604B1B88B362B8
:10468000638E013B9BB26386638E9BB2002B01D18C
:10469000013333756379012B27D1637A002B24D042
:1046A0002068E16A0B78DAB24B1CE362A379012B34
:1046B00001D093B204E04B781B0213430231E16254
:1046C000DB05DB0D8362A38E013B9BB2A386A38E29
:1046D0009BB2002B09D101333375637A012B04D1CE
:1046E000E379002B01D10233B3756B0761D5738B6E
:1046F0005B0714D5637A012B0BD01E223823E254BA
:10470000353B6372023333753B0702D5201CA36926
:104710009847B36A728B04231343738349E0637A27
:10472000012B16D123689B6A638E013B9BB2638683
:10473000638E9BB2002B3CD104333375002234339B
:10474000E254353B6372FB0733D5201CE36898477E
:104750002FE023689B6ADB05DB0DDAB2A16A0A70E1
:10476000A26A511CA162A179012904D11B0A5370CC
:10477000A36A0133A362238E013B9BB22386238E5F
:104780009BB2002B15D100223833E254343B3375F1
:10479000637A022B05D17B070BD5201C63699847F0
:1047A00007E0637A002B04D1BB0702D5201C2369E4
:1047B0009847AB0714D56379012B11D1637A012B8C
:1047C0000ED1E379002B0BD10233337501336372C1
:1047D00000223533E254FB0702D5201CE3689847DA
:1047E000ED0907D08023337533767B0602D5636AE3
:1047F000201C9847F8BDC046D8040020F0040020D3
:10480000F0B55F4656464D464446F0B491B0051C9F
:104810000C1C161C2960081CB94B984722680523FC
:10482000D20700D564E122681733920700D55FE113
:10483000B4490A6A871C1B3BBB4013430B620FA998
:104840002D27F35D0B701430C3B20393181CAE4BCD
:1048500098470398AD4B9847F05D0021AC4B9847C3
:10486000F37A6B712423F35CAB712523F35CEB715A
:10487000F37E2B72337F6B722B689A46181CA04B09
:104880009847143000220E2306A98C4663441A80F0
:10489000338A99468023DB01994519D004D88023B7
:1048A0009B0199450AD005E1C023DB0199450AD057
:1048B00080231B02994500D101E1FBE01023069300
:1048C0000F3B0793FFE008230693073B0793FAE0AB
:1048D00033689B46F368039373690493337E984669
:1048E0002623F35C05937368002B15D080225205B4
:1048F000934236D12723F35C002B36D1336A1F1C39
:10490000C0B2844B9847011C381C0E2206AB9C4653
:104910006244814B984725E00823069300230793C0
:104920002723F35C002B0BD0069B0093306AB16AFF
:104930000E2206AB9C466244079B784FB84711E0B5
:10494000336A1F1CC0B2734B9847011C069B00932F
:10495000381C0E2206AB9C466244079B6F4FB8473B
:1049600000E00020031E00D0C2E0737E002B02D0C6
:10497000B37E524693732A68059FD369002BFCD1FE
:104980000E3306AA944663441B8852469381039BC8
:104990005A461343049A1343726813434A46134317
:1049A0004246120213437F071F432723F35C002B69
:1049B00001D104331F43717E8902337F5B021943A7
:1049C000F37AB27A13431943727F120211432423FC
:1049D000F25C52040B1C13432522B15C09041943F9
:1049E0003389FF2B04D0802252041743194305E07A
:1049F000F37E002B02D08023DB041F432C23F35CC7
:104A0000002B03D1464B9B789B0701D580231F4386
:104A10002A68D369002BFCD1534659602A68D369B0
:104A2000002BFCD153461F600EAB80221A7000226F
:104A30005A70DA709A70336B0A93736B0B93B36B83
:104A40000C93F36B03930D9300270EAEF9B2BB00EA
:104A50000AAA9858002802D1201C324B9847431CC0
:104A600005D03070000CC0B2311C2F4B9847013775
:104A7000042FEBD10023EB602B616B61AB61EB6129
:104A80002B62AB626B620022EB85AB853033EA545C
:104A90000133EA540133EA540133EA542868184BCD
:104AA0009847041C2149224B9847A400214BE5500C
:104AB00000231DE0102306930023079303E0032344
:104AC00006930023079333689B46F3680393736947
:104AD0000493337E98462623F35C05937368002B7A
:104AE00000D11DE780225205934200D102E73CE746
:104AF000181C11B03CBC90469946A246AB46F0BD8E
:104B00008142000000040040B5530000295300001A
:104B1000AD400000D1530000BD3E0000E53E000066
:104B200000200041F9400000AD540000DD4B0000C2
:104B3000C1420000D804002010B50368C4791C22CB
:104B4000002C0DD0C08D80B2173A002808D1DA6948
:104B5000002AFCD1198502211A7E0A42FCD00022CB
:104B6000101C10BD10B5046882791C23002A33D0B4
:104B7000828D92B2173B002A2ED1227E52072BD56E
:104B8000E369002BFCD1638BDBB29A0621D09A0734
:104B900003D50223638318331EE05A0703D5042389
:104BA00063831A3318E0DA0703D5012363831233D2
:104BB00012E0DA0605D5628B102313436383422388
:104BC0000AE09B0605D5628B2023134363834123B0
:104BD00002E0238D0B800023181C10BDF8B5800067
:104BE000654BC5582C68E369002BFCD1237EA67D5C
:104BF0001E403123EB5C3022AF5C1F40F30722D50F
:104C0000EB8D9BB2002B1CD0AA6A1378DBB2511C2F
:104C1000A9626979012901D09BB204E051780902A7
:104C20000B430232AA62DB05DB0D2385EB8D013BD2
:104C30009BB2EB85002B06D1013323750133A3759D
:104C400001E001232375B30709D502232375002250
:104C50003133EA54FB0702D5281CEB6898477307E9
:104C60006AD5AB8D9BB2002B64D0638BDBB21A0785
:104C700002D43F22134001E037221340002B37D0EB
:104C80009A0707D51A223223EA54628B303B13432A
:104C9000638327E05A0707D51E223223EA54628B2A
:104CA0002E3B134363831DE0DA0707D5132232231B
:104CB000EA54628B313B1343638313E0DA0607D572
:104CC00042223223EA54628B223B1343638309E07E
:104CD00020221A4206D021323223EA54628B123B40
:104CE000134363837B0727D5281C6B69984723E010
:104CF000238DDB05DB0DDAB2696A0A706A6A511C22
:104D000069626979012904D11B0A53706B6A013306
:104D10006B62AB8D013B9BB2AB85002B0CD1043396
:104D2000237500222E33EA54BB0705D5281C2B69B6
:104D3000984701E004232375F30607D51023237554
:104D40002376FB0602D5281CEB699847B30607D5E6
:104D50002023237523763B0702D5281CAB6998478F
:104D6000330707D5082323752376BB0602D52B6AA4
:104D7000281C9847F8BDC046D804002008B508286C
:104D800003D880001B4B1B589F46002031E01A4B74
:104D900018692EE0194B186A8005800F184BC34024
:104DA000181C26E0144B586923E0134B1B680220A3
:104DB00018401ED011491022CB681A42FCD00E4B6D
:104DC0001B685B0714D500200E4B98470A4B9B6865
:104DD0001B041B0C58430CE05023084AD35C0020F2
:104DE0005B0706D5044BD86803E08020000200E092
:104DF000054808BDA4C90000980100200008004033
:104E000000127A00D1530000006CDC0270B50C4C2B
:104E1000236A017885784278012002409201402679
:104E2000B3431343021C2A40D2017F308343134310
:104E300003220A40120203490B401343236270BD50
:104E400000080040FFFCFFFFF0B55F4656464D46A8
:104E50004446F0B483B02E4EB38A9C46457803781E
:104E60005A425A41914683789B46C37802799046CC
:104E7000477B027B0192847B826826484261012045
:104E80004A469200914604229246624651468A431F
:104E900094464A4661460A43944642460240D2003E
:104EA000904608229146624649468A4394464246C5
:104EB00061460A43944603401B0110229046624615
:104EC00041468A43134359460140490120229343F6
:104ED0000B43019A0240920140218B431343074048
:104EE000FF01802293433B43793A15402D020A4F3C
:104EF0003B402B4304402003084C1C400443B48235
:104F000003B03CBC90469946A246AB46F0BDC046B5
:104F10000008004098010020FFF8FFFFFFEFFFFFAF
:104F200010B5037A9B061A0C43899B059B0D13430E
:104F3000154C6360818843881943C3798279134390
:104F40000B434278D201134323600378042B0FD123
:104F5000037B9B06028A1343191CC3891B040B4A5B
:104F600013400B43A360216804230B43236009E033
:104F7000202B07D1028A044B9A601A688421C90049
:104F80000A431A6010BDC046980100200000FF03CC
:104F9000082803D88000224B1B589F4617203EE06C
:104FA000204A116A02230B431362002037E01D4A96
:104FB000916902230B439361002030E0194A118A62
:104FC00002230B431382002029E0164A918A022310
:104FD0000B439382002022E0134B196802220A43FC
:104FE0001A601A68114B13400E4A9384111C102248
:104FF000CB681A42FCD00C4A91680A4BD9625168BE
:105000009962126892B29A84002008E0054944220D
:10501000885C022303438B54002000E0002070478B
:10502000C8C9000000080040980100207FFF000070
:10503000F0B58FB0C222D200474B9A6047494B6807
:105040001E2293431A3A13434B60023A01AB1A7083
:105050000024434DE0B201A9A8470134252CF9D121
:105060000AA8002303708370802212028260C3703A
:105070000122027103738373023242704373394B0E
:1050800098470520384B984733490222CB681A428B
:10509000FCD0314A918A80230B43938205AB0021D7
:1050A0000022598099809A71DA713F3159813B39D8
:1050B00019705A702D4B1B689B0E3F2B00D1203B63
:1050C00005A803722A4B0382072303733833C38175
:1050D000284B984704A80025457001268670057066
:1050E000254B98470620204FB847244B984701ACE2
:1050F0000296657025726572052323700120211CBC
:105100001F4B984701201F4B984726700020211CF9
:10511000134B984700201C4B98470720B8470E496F
:10512000D022CB681340D02BFBD1184A0023137236
:1051300053729372D37201A901224A604B700B72B1
:105140004B7207330B7000200D4B984700200D4B1E
:1051500098470FB0F0BDC046000800400040004135
:10516000B5530000494E0000914F000024608000BC
:10517000B9050000214F00000D4E000091510000C4
:10518000B5510000595200002953000000040040AE
:10519000064A916908230B4393610122044B1A705C
:1051A000191C0B781342FCD17047C0460004004024
:1051B000000C004070B5041C0D782D0205434B789F
:1051C000002B02D08023DB021D434B7A002B02D040
:1051D00080231B031D434E68012E18D9731E1E42E7
:1051E00010D1022E06D90223002201325B009E421A
:1051F000FBD800E0002212021043041C80235B0352
:105200001D4304E03402044380239B021D430B7AB8
:10521000002B02D080239B031D430C4A53785BB2C2
:10522000002BFBDB0A4B9847084B9C601A1C5378F9
:105230005BB2002BFBDB054A516880235B020B400D
:105240001D435560034B984770BDC046000C00409D
:10525000F12E0000312F000010B5041C0B4A5378CA
:105260005BB2002BFBDB0A4B98470A4B1C70074ACA
:1052700053785BB2002BFBDB044A53688021490260
:105280000B435360044B984710BDC046000C0040D0
:10529000F12E0000040C0040312F000070B5041CFA
:1052A0001A4A53785BB2002BFBDB194B9847194B1A
:1052B0001C70164A53785BB2002BFBDB134E7068F0
:1052C000C004C00E144B9847051C124B1C70766826
:1052D000F602F60F114B1C700C4A53785BB2002B90
:1052E000FBDB0A4B9C68240AA4B20D4B9847002EA6
:1052F00007D1012C07D9281C211C0A4B9847051CF3
:1053000001E00134E540281C70BDC046000C00409F
:10531000F12E0000040C00407D4D0000080C004000
:10532000312F00000990000010B5041C064B98476F
:10533000064B1C70064A51888023DB010B435380C7
:10534000044B984710BDC046F12E0000020C0040EF
:10535000000C0040312F000010B5041C0F4B984783
:105360000F4B1C700F4B5A881205100F59880E4AAC
:105370000A405A8059880D4A0A405A80191C8022D6
:10538000D2014B881342FCD1064902024888064BE1
:10539000034013434B80064B984710BDF12E00008D
:1053A000020C0040000C0040FFF0FFFFFFBFFFFFBA
:1053B000312F000010B50C7824020443024B9847AB
:1053C000A4B2024B5C8010BD59530000000C004099
:1053D00010B5041C064B9847064B1C70064B5C88A6
:1053E0002405240F054B9847201C054B984710BDFA
:1053F000F12E0000020C0040000C0040312F000094
:105400009D52000030B5D378002B1ED11478802C2B
:1054100004D0240680235B021C4300E00024537860
:105420000225AB430AD19378002B03D180239B0242
:105430001C4302E0C023DB021C4341605378013B64
:10544000012B12D8184B1C400FE041600B041B0CC1
:10545000A024E405234383620B0CD02424062343B9
:105460008362D378002B18D01CE00B041B0CA02502
:10547000ED052B43234383620B0CD0252D062B43D4
:1054800023438362D378002B0CD1630305D5937833
:10549000012B01D1816100E041615378013B012B77
:1054A00000D8816030BDC046FFFFFBFF08B5031C7C
:1054B0000A1CC1090020002904D15809C00105496E
:1054C0008C4660441F210B401E399940024B98477F
:1054D00008BDC04600440041055400007047C04666
:1054E00008B5054B9847054B9847054B9847054B22
:1054F0009847054B984708BD31500000612F0000C8
:10550000DD540000FD320000DD540000084B9842DD
:105510000AD0084B984205D00023074A904205D193
:10552000023302E0012300E00023DBB2181C7047C5
:1055300000200042002400420028004210B5041C54
:10554000081C4F4B98470023236080004D4A825827
:105550006260A372E372237363722372E361236256
:105560006362A36223756375A375E375237663761F
:1055700023746374A374E3742C22A3540132A354E0
:105580000132A3540132A3540132A3540132A35473
:105590000132A3540132A3540132A3540132A35463
:1055A0000132A3540132A3540132A3540132A35453
:1055B0000132A3540132A3540132A3540132A35443
:1055C0000132A3540132A3540132A3540132A35433
:1055D0000132A3540132A3540132A3540132A35423
:1055E0000132A3540132A3540132A3540132A35413
:1055F0000132A3540132A3540132A3540132A35403
:105600000132A3540132A3540132A3540132A354F2
:105610000132A3540132A3540132A3540132A354E2
:105620000132A3540132A3544132A354A365A367AA
:105630000132A354E365E3670132A35423661A3AA7
:10564000A3501B32A3546366173AA3501832A354D5
:10565000A366143AA3501532A354E366113AA3503B
:105660001232A35423670E3AA3500F32A354636738
:105670000B3AA35001210C32A1540132A35410BDA6
:105680000D550000FCC90000F0B55F4656464D467A
:105690004446F0B48FB000900C1C171C081C874BBC
:1056A0009847051C061C864A116A8000854BC35822
:1056B0000B43136223681C209B0700D5DDE12368A0
:1056C0000122134000D0D8E1AA007F495258053882
:1056D00039688A4200D2D0E179688A4200D2CCE1AE
:1056E000F9698A4200D2B3E1396A914200D9B1E145
:1056F000796A8A4200D2AFE1B96A8A4200D2ADE14A
:1057000098229446BC44624604926146002208787E
:10571000002804D06D48805D904200DCA0E1013299
:105720000131082AF3D100229046802149048C4699
:10573000B918097C012909D16549895D914200DACE
:1057400090E1614691404046084380460132042A78
:10575000EED19D32BA5C002A04D08022120141466B
:10576000114388463A7B0692FA7A07923A7A511E9A
:105770008A41920003927A7A012A02D10399114355
:105780000391534A525D111C05923522B85C814247
:1057900000D871E12C22BA5C0F2A00D96CE12D21CE
:1057A0008C46BC4461460191002108969946BB464F
:1057B0000F1CA24609950CE0907C059B834200D803
:1057C0005AE1527A019B0A33019304370F2A00D918
:1057D00052E11106F0231B051940019B1A1C1D788C
:1057E0002D04FF242404254002955B788024002B9F
:1057F00000D14C4696780823002E00D14B46D6782F
:10580000B44610266546002D00D14E468002C025C4
:105810002D012840014310790325284001430298B7
:10582000014355796D016020284001430D1C90799A
:105830000002C021890001400D43D0790003E0211E
:10584000C90101400D432C4323431E430CABFE50C2
:10585000042FB1D1089E54465F46099D1B4B5B5DEA
:105860009C46584650305A464132002301218B460F
:10587000802149028A460194341C6646291C1D1C5D
:10588000B9460F1C01998C460178002909D09E4227
:1058900000D8E9E0514699400D431178002906D11E
:1058A0001BE01178002918D09E4200D8DEE00229C2
:1058B00010D10221FF3199400D430EE00D5500003B
:1058C00000040040F0C90000FCC900000CCA000040
:1058D00008CA0000594699400D4301330130023295
:1058E000082BD1D1261C64463B1C4F46A9461D1CE3
:1058F000654B5B5D01937B7E1B01302213403A7E3A
:1059000007210A401343181C002380214902FA187A
:10591000127D002A06D0019A9A4200DCA8E00A1CF7
:105920009A4010430133042BF1D1029000990B1CD3
:1059300004333431002204C38B42FCD1002300998C
:105940004B638B63AA00514BD1500C60A023FA5CCF
:10595000643BCA540BA9BB7A0B704D4B5B5D009343
:10596000181C4C4B984700984B4B98474B4B5B5D32
:10597000002B29DD3D1C583597235B42DB1B9B46E2
:10598000464B9A4643460093A046341C049E5B4611
:10599000BB461F1C3378002B0BD001230AAA93703F
:1059A00000220AA9CA702A6A0A704B7028783C4BF8
:1059B0009847BB19013604355246125D9A42E9DC1C
:1059C0004446009B98465F46069B1A03079B1B02B2
:1059D00013434246134323600422A3681A42FCD1B6
:1059E000FF2323710422A3681A42FCD16B461B7B60
:1059F00063710C9BE3600D9B23614B46A361294AB5
:105A0000A3681342FCD1029BE3631022A3681A42ED
:105A1000FCD13B686363244AA3681342FCD17B68D2
:105A200023640198002825DD3D1C1C3500211F4EF4
:105A3000321C8A40A3681342FCD104CD0B1C1033E6
:105A40009B00E3185A6001318842F1DC002014E029
:105A5000172012E0172010E017200EE017200CE0AE
:105A600017200AE0172008E0172006E0172004E0BE
:105A7000172002E0002000E017200FB03CBC904649
:105A80009946A246AB46F0BD08CA0000F4040020C7
:105A9000ECC90000B5530000295300000CCA0000F7
:105AA000AD54000040000200800004000001080026
:105AB000920083185960034BD358426B13434363DE
:105AC0000020704714CA000038B5041C0D1C006883
:105AD000094B9847094B1B5C1F2213401E3A9A4002
